{
  "contractName": "Token",
  "abi": [
    {
      "anonymous": false,
      "inputs": [
        {
          "indexed": true,
          "internalType": "address",
          "name": "owner",
          "type": "address"
        },
        {
          "indexed": true,
          "internalType": "address",
          "name": "spender",
          "type": "address"
        },
        {
          "indexed": false,
          "internalType": "uint256",
          "name": "value",
          "type": "uint256"
        }
      ],
      "name": "Approval",
      "type": "event"
    },
    {
      "anonymous": false,
      "inputs": [
        {
          "indexed": false,
          "internalType": "uint8",
          "name": "version",
          "type": "uint8"
        }
      ],
      "name": "Initialized",
      "type": "event"
    },
    {
      "anonymous": false,
      "inputs": [
        {
          "indexed": true,
          "internalType": "address",
          "name": "previousOwner",
          "type": "address"
        },
        {
          "indexed": true,
          "internalType": "address",
          "name": "newOwner",
          "type": "address"
        }
      ],
      "name": "OwnershipTransferred",
      "type": "event"
    },
    {
      "anonymous": false,
      "inputs": [
        {
          "indexed": true,
          "internalType": "address",
          "name": "from",
          "type": "address"
        },
        {
          "indexed": true,
          "internalType": "address",
          "name": "to",
          "type": "address"
        },
        {
          "indexed": false,
          "internalType": "uint256",
          "name": "value",
          "type": "uint256"
        }
      ],
      "name": "Transfer",
      "type": "event"
    },
    {
      "inputs": [
        {
          "internalType": "address",
          "name": "owner",
          "type": "address"
        },
        {
          "internalType": "address",
          "name": "spender",
          "type": "address"
        }
      ],
      "name": "allowance",
      "outputs": [
        {
          "internalType": "uint256",
          "name": "",
          "type": "uint256"
        }
      ],
      "stateMutability": "view",
      "type": "function",
      "constant": true
    },
    {
      "inputs": [
        {
          "internalType": "address",
          "name": "spender",
          "type": "address"
        },
        {
          "internalType": "uint256",
          "name": "amount",
          "type": "uint256"
        }
      ],
      "name": "approve",
      "outputs": [
        {
          "internalType": "bool",
          "name": "",
          "type": "bool"
        }
      ],
      "stateMutability": "nonpayable",
      "type": "function"
    },
    {
      "inputs": [
        {
          "internalType": "address",
          "name": "account",
          "type": "address"
        }
      ],
      "name": "balanceOf",
      "outputs": [
        {
          "internalType": "uint256",
          "name": "",
          "type": "uint256"
        }
      ],
      "stateMutability": "view",
      "type": "function",
      "constant": true
    },
    {
      "inputs": [],
      "name": "decimals",
      "outputs": [
        {
          "internalType": "uint8",
          "name": "",
          "type": "uint8"
        }
      ],
      "stateMutability": "view",
      "type": "function",
      "constant": true
    },
    {
      "inputs": [
        {
          "internalType": "address",
          "name": "spender",
          "type": "address"
        },
        {
          "internalType": "uint256",
          "name": "subtractedValue",
          "type": "uint256"
        }
      ],
      "name": "decreaseAllowance",
      "outputs": [
        {
          "internalType": "bool",
          "name": "",
          "type": "bool"
        }
      ],
      "stateMutability": "nonpayable",
      "type": "function"
    },
    {
      "inputs": [
        {
          "internalType": "address",
          "name": "spender",
          "type": "address"
        },
        {
          "internalType": "uint256",
          "name": "addedValue",
          "type": "uint256"
        }
      ],
      "name": "increaseAllowance",
      "outputs": [
        {
          "internalType": "bool",
          "name": "",
          "type": "bool"
        }
      ],
      "stateMutability": "nonpayable",
      "type": "function"
    },
    {
      "inputs": [],
      "name": "name",
      "outputs": [
        {
          "internalType": "string",
          "name": "",
          "type": "string"
        }
      ],
      "stateMutability": "view",
      "type": "function",
      "constant": true
    },
    {
      "inputs": [],
      "name": "owner",
      "outputs": [
        {
          "internalType": "address",
          "name": "",
          "type": "address"
        }
      ],
      "stateMutability": "view",
      "type": "function",
      "constant": true
    },
    {
      "inputs": [],
      "name": "renounceOwnership",
      "outputs": [],
      "stateMutability": "nonpayable",
      "type": "function"
    },
    {
      "inputs": [],
      "name": "symbol",
      "outputs": [
        {
          "internalType": "string",
          "name": "",
          "type": "string"
        }
      ],
      "stateMutability": "view",
      "type": "function",
      "constant": true
    },
    {
      "inputs": [],
      "name": "totalSupply",
      "outputs": [
        {
          "internalType": "uint256",
          "name": "",
          "type": "uint256"
        }
      ],
      "stateMutability": "view",
      "type": "function",
      "constant": true
    },
    {
      "inputs": [
        {
          "internalType": "address",
          "name": "to",
          "type": "address"
        },
        {
          "internalType": "uint256",
          "name": "amount",
          "type": "uint256"
        }
      ],
      "name": "transfer",
      "outputs": [
        {
          "internalType": "bool",
          "name": "",
          "type": "bool"
        }
      ],
      "stateMutability": "nonpayable",
      "type": "function"
    },
    {
      "inputs": [
        {
          "internalType": "address",
          "name": "from",
          "type": "address"
        },
        {
          "internalType": "address",
          "name": "to",
          "type": "address"
        },
        {
          "internalType": "uint256",
          "name": "amount",
          "type": "uint256"
        }
      ],
      "name": "transferFrom",
      "outputs": [
        {
          "internalType": "bool",
          "name": "",
          "type": "bool"
        }
      ],
      "stateMutability": "nonpayable",
      "type": "function"
    },
    {
      "inputs": [
        {
          "internalType": "address",
          "name": "newOwner",
          "type": "address"
        }
      ],
      "name": "transferOwnership",
      "outputs": [],
      "stateMutability": "nonpayable",
      "type": "function"
    },
    {
      "inputs": [
        {
          "internalType": "string",
          "name": "_tokenName",
          "type": "string"
        },
        {
          "internalType": "string",
          "name": "_tokenSymbol",
          "type": "string"
        },
        {
          "internalType": "uint256",
          "name": "_supply",
          "type": "uint256"
        }
      ],
      "name": "initialize",
      "outputs": [],
      "stateMutability": "nonpayable",
      "type": "function"
    },
    {
      "inputs": [],
      "name": "getContractVersion",
      "outputs": [
        {
          "internalType": "uint8",
          "name": "",
          "type": "uint8"
        }
      ],
      "stateMutability": "view",
      "type": "function",
      "constant": true
    }
  ],
  "bytecode": "0x608060405234801561000f575f80fd5b50611fd18061001d5f395ff3fe608060405234801561000f575f80fd5b50600436106100fe575f3560e01c80638aa1043511610095578063a9059cbb11610064578063a9059cbb146102b0578063b119490e146102e0578063dd62ed3e146102fc578063f2fde38b1461032c576100fe565b80638aa10435146102265780638da5cb5b1461024457806395d89b4114610262578063a457c2d714610280576100fe565b8063313ce567116100d1578063313ce5671461019e57806339509351146101bc57806370a08231146101ec578063715018a61461021c576100fe565b806306fdde0314610102578063095ea7b31461012057806318160ddd1461015057806323b872dd1461016e575b5f80fd5b61010a610348565b6040516101179190611189565b60405180910390f35b61013a60048036038101906101359190611247565b6103d8565b604051610147919061129f565b60405180910390f35b6101586103fa565b60405161016591906112c7565b60405180910390f35b610188600480360381019061018391906112e0565b610403565b604051610195919061129f565b60405180910390f35b6101a6610431565b6040516101b3919061134b565b60405180910390f35b6101d660048036038101906101d19190611247565b610439565b6040516101e3919061129f565b60405180910390f35b61020660048036038101906102019190611364565b61046f565b60405161021391906112c7565b60405180910390f35b6102246104b5565b005b61022e6104c8565b60405161023b919061134b565b60405180910390f35b61024c6104dd565b604051610259919061139e565b60405180910390f35b61026a610505565b6040516102779190611189565b60405180910390f35b61029a60048036038101906102959190611247565b610595565b6040516102a7919061129f565b60405180910390f35b6102ca60048036038101906102c59190611247565b61060a565b6040516102d7919061129f565b60405180910390f35b6102fa60048036038101906102f591906114e3565b61062c565b005b6103166004803603810190610311919061156b565b6107a9565b60405161032391906112c7565b60405180910390f35b61034660048036038101906103419190611364565b61082b565b005b606060368054610357906115d6565b80601f0160208091040260200160405190810160405280929190818152602001828054610383906115d6565b80156103ce5780601f106103a5576101008083540402835291602001916103ce565b820191905f5260205f20905b8154815290600101906020018083116103b157829003601f168201915b5050505050905090565b5f806103e26108ad565b90506103ef8185856108b4565b600191505092915050565b5f603554905090565b5f8061040d6108ad565b905061041a858285610a77565b610425858585610b02565b60019150509392505050565b5f6012905090565b5f806104436108ad565b905061046481858561045585896107a9565b61045f9190611633565b6108b4565b600191505092915050565b5f60335f8373ffffffffffffffffffffffffffffffffffffffff1673ffffffffffffffffffffffffffffffffffffffff1681526020019081526020015f20549050919050565b6104bd610d71565b6104c65f610def565b565b5f60975f9054906101000a900460ff16905090565b5f60655f9054906101000a900473ffffffffffffffffffffffffffffffffffffffff16905090565b606060378054610514906115d6565b80601f0160208091040260200160405190810160405280929190818152602001828054610540906115d6565b801561058b5780601f106105625761010080835404028352916020019161058b565b820191905f5260205f20905b81548152906001019060200180831161056e57829003601f168201915b5050505050905090565b5f8061059f6108ad565b90505f6105ac82866107a9565b9050838110156105f1576040517f08c379a00000000000000000000000000000000000000000000000000000000081526004016105e8906116d6565b60405180910390fd5b6105fe82868684036108b4565b60019250505092915050565b5f806106146108ad565b9050610621818585610b02565b600191505092915050565b5f8060019054906101000a900460ff1615905080801561065b575060015f8054906101000a900460ff1660ff16105b80610687575061066a30610eb2565b158015610686575060015f8054906101000a900460ff1660ff16145b5b6106c6576040517f08c379a00000000000000000000000000000000000000000000000000000000081526004016106bd90611764565b60405180910390fd5b60015f806101000a81548160ff021916908360ff16021790555080156107015760015f60016101000a81548160ff0219169083151502179055505b61070b8484610ed4565b610713610f46565b61073033670de0b6b3a76400008461072b9190611782565b610fa6565b600160975f6101000a81548160ff021916908360ff16021790555080156107a3575f8060016101000a81548160ff0219169083151502179055507f7f26b83ff96e1f2b6a682f133852f6798a09c465da95921460cefb3847402498600160405161079a9190611805565b60405180910390a15b50505050565b5f60345f8473ffffffffffffffffffffffffffffffffffffffff1673ffffffffffffffffffffffffffffffffffffffff1681526020019081526020015f205f8373ffffffffffffffffffffffffffffffffffffffff1673ffffffffffffffffffffffffffffffffffffffff1681526020019081526020015f2054905092915050565b610833610d71565b5f73ffffffffffffffffffffffffffffffffffffffff168173ffffffffffffffffffffffffffffffffffffffff16036108a1576040517f08c379a00000000000000000000000000000000000000000000000000000000081526004016108989061188e565b60405180910390fd5b6108aa81610def565b50565b5f33905090565b5f73ffffffffffffffffffffffffffffffffffffffff168373ffffffffffffffffffffffffffffffffffffffff1603610922576040517f08c379a00000000000000000000000000000000000000000000000000000000081526004016109199061191c565b60405180910390fd5b5f73ffffffffffffffffffffffffffffffffffffffff168273ffffffffffffffffffffffffffffffffffffffff1603610990576040517f08c379a0000000000000000000000000000000000000000000000000000000008152600401610987906119aa565b60405180910390fd5b8060345f8573ffffffffffffffffffffffffffffffffffffffff1673ffffffffffffffffffffffffffffffffffffffff1681526020019081526020015f205f8473ffffffffffffffffffffffffffffffffffffffff1673ffffffffffffffffffffffffffffffffffffffff1681526020019081526020015f20819055508173ffffffffffffffffffffffffffffffffffffffff168373ffffffffffffffffffffffffffffffffffffffff167f8c5be1e5ebec7d5bd14f71427d1e84f3dd0314c0f7b2291e5b200ac8c7c3b92583604051610a6a91906112c7565b60405180910390a3505050565b5f610a8284846107a9565b90507fffffffffffffffffffffffffffffffffffffffffffffffffffffffffffffffff8114610afc5781811015610aee576040517f08c379a0000000000000000000000000000000000000000000000000000000008152600401610ae590611a12565b60405180910390fd5b610afb84848484036108b4565b5b50505050565b5f73ffffffffffffffffffffffffffffffffffffffff168373ffffffffffffffffffffffffffffffffffffffff1603610b70576040517f08c379a0000000000000000000000000000000000000000000000000000000008152600401610b6790611aa0565b60405180910390fd5b5f73ffffffffffffffffffffffffffffffffffffffff168273ffffffffffffffffffffffffffffffffffffffff1603610bde576040517f08c379a0000000000000000000000000000000000000000000000000000000008152600401610bd590611b2e565b60405180910390fd5b610be98383836110f5565b5f60335f8573ffffffffffffffffffffffffffffffffffffffff1673ffffffffffffffffffffffffffffffffffffffff1681526020019081526020015f2054905081811015610c6d576040517f08c379a0000000000000000000000000000000000000000000000000000000008152600401610c6490611bbc565b60405180910390fd5b81810360335f8673ffffffffffffffffffffffffffffffffffffffff1673ffffffffffffffffffffffffffffffffffffffff1681526020019081526020015f20819055508160335f8573ffffffffffffffffffffffffffffffffffffffff1673ffffffffffffffffffffffffffffffffffffffff1681526020019081526020015f205f82825401925050819055508273ffffffffffffffffffffffffffffffffffffffff168473ffffffffffffffffffffffffffffffffffffffff167fddf252ad1be2c89b69c2b068fc378daa952ba7f163c4a11628f55a4df523b3ef84604051610d5891906112c7565b60405180910390a3610d6b8484846110fa565b50505050565b610d796108ad565b73ffffffffffffffffffffffffffffffffffffffff16610d976104dd565b73ffffffffffffffffffffffffffffffffffffffff1614610ded576040517f08c379a0000000000000000000000000000000000000000000000000000000008152600401610de490611c24565b60405180910390fd5b565b5f60655f9054906101000a900473ffffffffffffffffffffffffffffffffffffffff1690508160655f6101000a81548173ffffffffffffffffffffffffffffffffffffffff021916908373ffffffffffffffffffffffffffffffffffffffff1602179055508173ffffffffffffffffffffffffffffffffffffffff168173ffffffffffffffffffffffffffffffffffffffff167f8be0079c531659141344cd1fd0a4f28419497f9722a3daafe3b4186f6b6457e060405160405180910390a35050565b5f808273ffffffffffffffffffffffffffffffffffffffff163b119050919050565b5f60019054906101000a900460ff16610f22576040517f08c379a0000000000000000000000000000000000000000000000000000000008152600401610f1990611cb2565b60405180910390fd5b8160369081610f319190611e64565b508060379081610f419190611e64565b505050565b5f60019054906101000a900460ff16610f94576040517f08c379a0000000000000000000000000000000000000000000000000000000008152600401610f8b90611cb2565b60405180910390fd5b610fa4610f9f6108ad565b610def565b565b5f73ffffffffffffffffffffffffffffffffffffffff168273ffffffffffffffffffffffffffffffffffffffff1603611014576040517f08c379a000000000000000000000000000000000000000000000000000000000815260040161100b90611f7d565b60405180910390fd5b61101f5f83836110f5565b8060355f8282546110309190611633565b925050819055508060335f8473ffffffffffffffffffffffffffffffffffffffff1673ffffffffffffffffffffffffffffffffffffffff1681526020019081526020015f205f82825401925050819055508173ffffffffffffffffffffffffffffffffffffffff165f73ffffffffffffffffffffffffffffffffffffffff167fddf252ad1be2c89b69c2b068fc378daa952ba7f163c4a11628f55a4df523b3ef836040516110de91906112c7565b60405180910390a36110f15f83836110fa565b5050565b505050565b505050565b5f81519050919050565b5f82825260208201905092915050565b5f5b8381101561113657808201518184015260208101905061111b565b5f8484015250505050565b5f601f19601f8301169050919050565b5f61115b826110ff565b6111658185611109565b9350611175818560208601611119565b61117e81611141565b840191505092915050565b5f6020820190508181035f8301526111a18184611151565b905092915050565b5f604051905090565b5f80fd5b5f80fd5b5f73ffffffffffffffffffffffffffffffffffffffff82169050919050565b5f6111e3826111ba565b9050919050565b6111f3816111d9565b81146111fd575f80fd5b50565b5f8135905061120e816111ea565b92915050565b5f819050919050565b61122681611214565b8114611230575f80fd5b50565b5f813590506112418161121d565b92915050565b5f806040838503121561125d5761125c6111b2565b5b5f61126a85828601611200565b925050602061127b85828601611233565b9150509250929050565b5f8115159050919050565b61129981611285565b82525050565b5f6020820190506112b25f830184611290565b92915050565b6112c181611214565b82525050565b5f6020820190506112da5f8301846112b8565b92915050565b5f805f606084860312156112f7576112f66111b2565b5b5f61130486828701611200565b935050602061131586828701611200565b925050604061132686828701611233565b9150509250925092565b5f60ff82169050919050565b61134581611330565b82525050565b5f60208201905061135e5f83018461133c565b92915050565b5f60208284031215611379576113786111b2565b5b5f61138684828501611200565b91505092915050565b611398816111d9565b82525050565b5f6020820190506113b15f83018461138f565b92915050565b5f80fd5b5f80fd5b7f4e487b71000000000000000000000000000000000000000000000000000000005f52604160045260245ffd5b6113f582611141565b810181811067ffffffffffffffff82111715611414576114136113bf565b5b80604052505050565b5f6114266111a9565b905061143282826113ec565b919050565b5f67ffffffffffffffff821115611451576114506113bf565b5b61145a82611141565b9050602081019050919050565b828183375f83830152505050565b5f61148761148284611437565b61141d565b9050828152602081018484840111156114a3576114a26113bb565b5b6114ae848285611467565b509392505050565b5f82601f8301126114ca576114c96113b7565b5b81356114da848260208601611475565b91505092915050565b5f805f606084860312156114fa576114f96111b2565b5b5f84013567ffffffffffffffff811115611517576115166111b6565b5b611523868287016114b6565b935050602084013567ffffffffffffffff811115611544576115436111b6565b5b611550868287016114b6565b925050604061156186828701611233565b9150509250925092565b5f8060408385031215611581576115806111b2565b5b5f61158e85828601611200565b925050602061159f85828601611200565b9150509250929050565b7f4e487b71000000000000000000000000000000000000000000000000000000005f52602260045260245ffd5b5f60028204905060018216806115ed57607f821691505b602082108103611600576115ff6115a9565b5b50919050565b7f4e487b71000000000000000000000000000000000000000000000000000000005f52601160045260245ffd5b5f61163d82611214565b915061164883611214565b92508282019050808211156116605761165f611606565b5b92915050565b7f45524332303a2064656372656173656420616c6c6f77616e63652062656c6f775f8201527f207a65726f000000000000000000000000000000000000000000000000000000602082015250565b5f6116c0602583611109565b91506116cb82611666565b604082019050919050565b5f6020820190508181035f8301526116ed816116b4565b9050919050565b7f496e697469616c697a61626c653a20636f6e747261637420697320616c7265615f8201527f647920696e697469616c697a6564000000000000000000000000000000000000602082015250565b5f61174e602e83611109565b9150611759826116f4565b604082019050919050565b5f6020820190508181035f83015261177b81611742565b9050919050565b5f61178c82611214565b915061179783611214565b92508282026117a581611214565b915082820484148315176117bc576117bb611606565b5b5092915050565b5f819050919050565b5f819050919050565b5f6117ef6117ea6117e5846117c3565b6117cc565b611330565b9050919050565b6117ff816117d5565b82525050565b5f6020820190506118185f8301846117f6565b92915050565b7f4f776e61626c653a206e6577206f776e657220697320746865207a65726f20615f8201527f6464726573730000000000000000000000000000000000000000000000000000602082015250565b5f611878602683611109565b91506118838261181e565b604082019050919050565b5f6020820190508181035f8301526118a58161186c565b9050919050565b7f45524332303a20617070726f76652066726f6d20746865207a65726f206164645f8201527f7265737300000000000000000000000000000000000000000000000000000000602082015250565b5f611906602483611109565b9150611911826118ac565b604082019050919050565b5f6020820190508181035f830152611933816118fa565b9050919050565b7f45524332303a20617070726f766520746f20746865207a65726f2061646472655f8201527f7373000000000000000000000000000000000000000000000000000000000000602082015250565b5f611994602283611109565b915061199f8261193a565b604082019050919050565b5f6020820190508181035f8301526119c181611988565b9050919050565b7f45524332303a20696e73756666696369656e7420616c6c6f77616e63650000005f82015250565b5f6119fc601d83611109565b9150611a07826119c8565b602082019050919050565b5f6020820190508181035f830152611a29816119f0565b9050919050565b7f45524332303a207472616e736665722066726f6d20746865207a65726f2061645f8201527f6472657373000000000000000000000000000000000000000000000000000000602082015250565b5f611a8a602583611109565b9150611a9582611a30565b604082019050919050565b5f6020820190508181035f830152611ab781611a7e565b9050919050565b7f45524332303a207472616e7366657220746f20746865207a65726f20616464725f8201527f6573730000000000000000000000000000000000000000000000000000000000602082015250565b5f611b18602383611109565b9150611b2382611abe565b604082019050919050565b5f6020820190508181035f830152611b4581611b0c565b9050919050565b7f45524332303a207472616e7366657220616d6f756e74206578636565647320625f8201527f616c616e63650000000000000000000000000000000000000000000000000000602082015250565b5f611ba6602683611109565b9150611bb182611b4c565b604082019050919050565b5f6020820190508181035f830152611bd381611b9a565b9050919050565b7f4f776e61626c653a2063616c6c6572206973206e6f7420746865206f776e65725f82015250565b5f611c0e602083611109565b9150611c1982611bda565b602082019050919050565b5f6020820190508181035f830152611c3b81611c02565b9050919050565b7f496e697469616c697a61626c653a20636f6e7472616374206973206e6f7420695f8201527f6e697469616c697a696e67000000000000000000000000000000000000000000602082015250565b5f611c9c602b83611109565b9150611ca782611c42565b604082019050919050565b5f6020820190508181035f830152611cc981611c90565b9050919050565b5f819050815f5260205f209050919050565b5f6020601f8301049050919050565b5f82821b905092915050565b5f60088302611d2c7fffffffffffffffffffffffffffffffffffffffffffffffffffffffffffffffff82611cf1565b611d368683611cf1565b95508019841693508086168417925050509392505050565b5f611d68611d63611d5e84611214565b6117cc565b611214565b9050919050565b5f819050919050565b611d8183611d4e565b611d95611d8d82611d6f565b848454611cfd565b825550505050565b5f90565b611da9611d9d565b611db4818484611d78565b505050565b5b81811015611dd757611dcc5f82611da1565b600181019050611dba565b5050565b601f821115611e1c57611ded81611cd0565b611df684611ce2565b81016020851015611e05578190505b611e19611e1185611ce2565b830182611db9565b50505b505050565b5f82821c905092915050565b5f611e3c5f1984600802611e21565b1980831691505092915050565b5f611e548383611e2d565b9150826002028217905092915050565b611e6d826110ff565b67ffffffffffffffff811115611e8657611e856113bf565b5b611e9082546115d6565b611e9b828285611ddb565b5f60209050601f831160018114611ecc575f8415611eba578287015190505b611ec48582611e49565b865550611f2b565b601f198416611eda86611cd0565b5f5b82811015611f0157848901518255600182019150602085019450602081019050611edc565b86831015611f1e5784890151611f1a601f891682611e2d565b8355505b6001600288020188555050505b505050505050565b7f45524332303a206d696e7420746f20746865207a65726f2061646472657373005f82015250565b5f611f67601f83611109565b9150611f7282611f33565b602082019050919050565b5f6020820190508181035f830152611f9481611f5b565b905091905056fea2646970667358221220d6749b273a492b4cead65a814e461f72577d108ea5f73bcea39cf27bc81286b864736f6c63430008150033",
  "immutableReferences": {},
  "source": "// SPDX-License-Identifier: MIT\npragma solidity ^0.8.17;\n\nimport \"@openzeppelin/contracts-upgradeable/token/ERC20/ERC20Upgradeable.sol\";\nimport \"@openzeppelin/contracts-upgradeable/access/OwnableUpgradeable.sol\";\n\ncontract Token is ERC20Upgradeable, OwnableUpgradeable {\n  uint8 private VERSION;\n\n  function initialize(\n    string memory _tokenName,\n    string memory _tokenSymbol,\n    uint256 _supply\n  ) public initializer {\n    __ERC20_init_unchained(_tokenName, _tokenSymbol);\n    __Ownable_init_unchained();\n\n    _mint(msg.sender, _supply * (1e18));\n    VERSION = 1;\n  }\n\n  function getContractVersion() public view returns (uint8) {\n    return VERSION;\n  }\n}\n",
  "sourcePath": "/home/vincenzotinelli/Mz-Dev-Homework4/contracts/Token.sol",
  "compiler": {
    "name": "solc",
    "version": "0.8.21+commit.d9974bed.Emscripten.clang"
  },
  "schemaVersion": "3.4.16",
  "updatedAt": "2024-06-07T06:01:28.203Z",
  "networkType": "ethereum",
  "devdoc": {
    "events": {
      "Approval(address,address,uint256)": {
        "details": "Emitted when the allowance of a `spender` for an `owner` is set by a call to {approve}. `value` is the new allowance."
      },
      "Initialized(uint8)": {
        "details": "Triggered when the contract has been initialized or reinitialized."
      },
      "Transfer(address,address,uint256)": {
        "details": "Emitted when `value` tokens are moved from one account (`from`) to another (`to`). Note that `value` may be zero."
      }
    },
    "kind": "dev",
    "methods": {
      "allowance(address,address)": {
        "details": "See {IERC20-allowance}."
      },
      "approve(address,uint256)": {
        "details": "See {IERC20-approve}. NOTE: If `amount` is the maximum `uint256`, the allowance is not updated on `transferFrom`. This is semantically equivalent to an infinite approval. Requirements: - `spender` cannot be the zero address."
      },
      "balanceOf(address)": {
        "details": "See {IERC20-balanceOf}."
      },
      "decimals()": {
        "details": "Returns the number of decimals used to get its user representation. For example, if `decimals` equals `2`, a balance of `505` tokens should be displayed to a user as `5.05` (`505 / 10 ** 2`). Tokens usually opt for a value of 18, imitating the relationship between Ether and Wei. This is the value {ERC20} uses, unless this function is overridden; NOTE: This information is only used for _display_ purposes: it in no way affects any of the arithmetic of the contract, including {IERC20-balanceOf} and {IERC20-transfer}."
      },
      "decreaseAllowance(address,uint256)": {
        "details": "Atomically decreases the allowance granted to `spender` by the caller. This is an alternative to {approve} that can be used as a mitigation for problems described in {IERC20-approve}. Emits an {Approval} event indicating the updated allowance. Requirements: - `spender` cannot be the zero address. - `spender` must have allowance for the caller of at least `subtractedValue`."
      },
      "increaseAllowance(address,uint256)": {
        "details": "Atomically increases the allowance granted to `spender` by the caller. This is an alternative to {approve} that can be used as a mitigation for problems described in {IERC20-approve}. Emits an {Approval} event indicating the updated allowance. Requirements: - `spender` cannot be the zero address."
      },
      "name()": {
        "details": "Returns the name of the token."
      },
      "owner()": {
        "details": "Returns the address of the current owner."
      },
      "renounceOwnership()": {
        "details": "Leaves the contract without owner. It will not be possible to call `onlyOwner` functions anymore. Can only be called by the current owner. NOTE: Renouncing ownership will leave the contract without an owner, thereby removing any functionality that is only available to the owner."
      },
      "symbol()": {
        "details": "Returns the symbol of the token, usually a shorter version of the name."
      },
      "totalSupply()": {
        "details": "See {IERC20-totalSupply}."
      },
      "transfer(address,uint256)": {
        "details": "See {IERC20-transfer}. Requirements: - `to` cannot be the zero address. - the caller must have a balance of at least `amount`."
      },
      "transferFrom(address,address,uint256)": {
        "details": "See {IERC20-transferFrom}. Emits an {Approval} event indicating the updated allowance. This is not required by the EIP. See the note at the beginning of {ERC20}. NOTE: Does not update the allowance if the current allowance is the maximum `uint256`. Requirements: - `from` and `to` cannot be the zero address. - `from` must have a balance of at least `amount`. - the caller must have allowance for ``from``'s tokens of at least `amount`."
      },
      "transferOwnership(address)": {
        "details": "Transfers ownership of the contract to a new account (`newOwner`). Can only be called by the current owner."
      }
    },
    "version": 1
  },
  "userdoc": {
    "kind": "user",
    "methods": {},
    "version": 1
  }
}