{
  "contractName": "Token2Storage",
  "abi": [
    {
      "inputs": [],
      "name": "VERSION",
      "outputs": [
        {
          "internalType": "uint8",
          "name": "",
          "type": "uint8"
        }
      ],
      "stateMutability": "view",
      "type": "function"
    },
    {
      "inputs": [],
      "name": "maxSupply",
      "outputs": [
        {
          "internalType": "uint256",
          "name": "",
          "type": "uint256"
        }
      ],
      "stateMutability": "view",
      "type": "function"
    }
  ],
  "bytecode": "0x608060405234801561000f575f80fd5b506101118061001d5f395ff3fe6080604052348015600e575f80fd5b50600436106030575f3560e01c8063d5abeb01146034578063ffa1ad7414604e575b5f80fd5b603a6068565b604051604591906094565b60405180910390f35b6054606e565b604051605f919060c4565b60405180910390f35b60015481565b5f8054906101000a900460ff1681565b5f819050919050565b608e81607e565b82525050565b5f60208201905060a55f8301846087565b92915050565b5f60ff82169050919050565b60be8160ab565b82525050565b5f60208201905060d55f83018460b7565b9291505056fea2646970667358221220a9ebe3c173b507ac8e85d50465df4087004ede241e38257f335ae0ade631882864736f6c63430008150033",
  "immutableReferences": {},
  "source": "// SPDX-License-Identifier: MIT\npragma solidity ^0.8.17;\n\ncontract Token2Storage {\n  uint8 public VERSION;\n  uint256 public maxSupply;\n}\n",
  "sourcePath": "/home/vincenzotinelli/Mz-Dev-Homework4/contracts/Tokwn2Storaage.sol",
  "compiler": {
    "name": "solc",
    "version": "0.8.21+commit.d9974bed.Emscripten.clang"
  },
  "schemaVersion": "3.4.16",
  "updatedAt": "2024-06-07T05:48:59.547Z",
  "devdoc": {
    "kind": "dev",
    "methods": {},
    "version": 1
  },
  "userdoc": {
    "kind": "user",
    "methods": {},
    "version": 1
  }
}