{
  "contractName": "Token2",
  "abi": [
    {
      "anonymous": false,
      "inputs": [
        {
          "indexed": true,
          "internalType": "address",
          "name": "owner",
          "type": "address"
        },
        {
          "indexed": true,
          "internalType": "address",
          "name": "spender",
          "type": "address"
        },
        {
          "indexed": false,
          "internalType": "uint256",
          "name": "value",
          "type": "uint256"
        }
      ],
      "name": "Approval",
      "type": "event"
    },
    {
      "anonymous": false,
      "inputs": [
        {
          "indexed": false,
          "internalType": "uint8",
          "name": "version",
          "type": "uint8"
        }
      ],
      "name": "Initialized",
      "type": "event"
    },
    {
      "anonymous": false,
      "inputs": [
        {
          "indexed": true,
          "internalType": "address",
          "name": "previousOwner",
          "type": "address"
        },
        {
          "indexed": true,
          "internalType": "address",
          "name": "newOwner",
          "type": "address"
        }
      ],
      "name": "OwnershipTransferred",
      "type": "event"
    },
    {
      "anonymous": false,
      "inputs": [
        {
          "indexed": true,
          "internalType": "address",
          "name": "from",
          "type": "address"
        },
        {
          "indexed": true,
          "internalType": "address",
          "name": "to",
          "type": "address"
        },
        {
          "indexed": false,
          "internalType": "uint256",
          "name": "value",
          "type": "uint256"
        }
      ],
      "name": "Transfer",
      "type": "event"
    },
    {
      "inputs": [],
      "name": "VERSION",
      "outputs": [
        {
          "internalType": "uint8",
          "name": "",
          "type": "uint8"
        }
      ],
      "stateMutability": "view",
      "type": "function"
    },
    {
      "inputs": [
        {
          "internalType": "address",
          "name": "owner",
          "type": "address"
        },
        {
          "internalType": "address",
          "name": "spender",
          "type": "address"
        }
      ],
      "name": "allowance",
      "outputs": [
        {
          "internalType": "uint256",
          "name": "",
          "type": "uint256"
        }
      ],
      "stateMutability": "view",
      "type": "function"
    },
    {
      "inputs": [
        {
          "internalType": "address",
          "name": "spender",
          "type": "address"
        },
        {
          "internalType": "uint256",
          "name": "amount",
          "type": "uint256"
        }
      ],
      "name": "approve",
      "outputs": [
        {
          "internalType": "bool",
          "name": "",
          "type": "bool"
        }
      ],
      "stateMutability": "nonpayable",
      "type": "function"
    },
    {
      "inputs": [
        {
          "internalType": "address",
          "name": "account",
          "type": "address"
        }
      ],
      "name": "balanceOf",
      "outputs": [
        {
          "internalType": "uint256",
          "name": "",
          "type": "uint256"
        }
      ],
      "stateMutability": "view",
      "type": "function"
    },
    {
      "inputs": [],
      "name": "decimals",
      "outputs": [
        {
          "internalType": "uint8",
          "name": "",
          "type": "uint8"
        }
      ],
      "stateMutability": "view",
      "type": "function"
    },
    {
      "inputs": [
        {
          "internalType": "address",
          "name": "spender",
          "type": "address"
        },
        {
          "internalType": "uint256",
          "name": "subtractedValue",
          "type": "uint256"
        }
      ],
      "name": "decreaseAllowance",
      "outputs": [
        {
          "internalType": "bool",
          "name": "",
          "type": "bool"
        }
      ],
      "stateMutability": "nonpayable",
      "type": "function"
    },
    {
      "inputs": [
        {
          "internalType": "address",
          "name": "spender",
          "type": "address"
        },
        {
          "internalType": "uint256",
          "name": "addedValue",
          "type": "uint256"
        }
      ],
      "name": "increaseAllowance",
      "outputs": [
        {
          "internalType": "bool",
          "name": "",
          "type": "bool"
        }
      ],
      "stateMutability": "nonpayable",
      "type": "function"
    },
    {
      "inputs": [],
      "name": "maxSupply",
      "outputs": [
        {
          "internalType": "uint256",
          "name": "",
          "type": "uint256"
        }
      ],
      "stateMutability": "view",
      "type": "function"
    },
    {
      "inputs": [],
      "name": "name",
      "outputs": [
        {
          "internalType": "string",
          "name": "",
          "type": "string"
        }
      ],
      "stateMutability": "view",
      "type": "function"
    },
    {
      "inputs": [],
      "name": "owner",
      "outputs": [
        {
          "internalType": "address",
          "name": "",
          "type": "address"
        }
      ],
      "stateMutability": "view",
      "type": "function"
    },
    {
      "inputs": [],
      "name": "renounceOwnership",
      "outputs": [],
      "stateMutability": "nonpayable",
      "type": "function"
    },
    {
      "inputs": [],
      "name": "symbol",
      "outputs": [
        {
          "internalType": "string",
          "name": "",
          "type": "string"
        }
      ],
      "stateMutability": "view",
      "type": "function"
    },
    {
      "inputs": [],
      "name": "totalSupply",
      "outputs": [
        {
          "internalType": "uint256",
          "name": "",
          "type": "uint256"
        }
      ],
      "stateMutability": "view",
      "type": "function"
    },
    {
      "inputs": [
        {
          "internalType": "address",
          "name": "to",
          "type": "address"
        },
        {
          "internalType": "uint256",
          "name": "amount",
          "type": "uint256"
        }
      ],
      "name": "transfer",
      "outputs": [
        {
          "internalType": "bool",
          "name": "",
          "type": "bool"
        }
      ],
      "stateMutability": "nonpayable",
      "type": "function"
    },
    {
      "inputs": [
        {
          "internalType": "address",
          "name": "from",
          "type": "address"
        },
        {
          "internalType": "address",
          "name": "to",
          "type": "address"
        },
        {
          "internalType": "uint256",
          "name": "amount",
          "type": "uint256"
        }
      ],
      "name": "transferFrom",
      "outputs": [
        {
          "internalType": "bool",
          "name": "",
          "type": "bool"
        }
      ],
      "stateMutability": "nonpayable",
      "type": "function"
    },
    {
      "inputs": [
        {
          "internalType": "address",
          "name": "newOwner",
          "type": "address"
        }
      ],
      "name": "transferOwnership",
      "outputs": [],
      "stateMutability": "nonpayable",
      "type": "function"
    },
    {
      "inputs": [
        {
          "internalType": "string",
          "name": "_tokenName",
          "type": "string"
        },
        {
          "internalType": "string",
          "name": "_tokenSymbol",
          "type": "string"
        },
        {
          "internalType": "uint256",
          "name": "_supply",
          "type": "uint256"
        }
      ],
      "name": "initialize",
      "outputs": [],
      "stateMutability": "nonpayable",
      "type": "function"
    },
    {
      "inputs": [
        {
          "internalType": "uint256",
          "name": "_max",
          "type": "uint256"
        }
      ],
      "name": "setMaxSupply",
      "outputs": [],
      "stateMutability": "nonpayable",
      "type": "function"
    },
    {
      "inputs": [
        {
          "internalType": "uint8",
          "name": "_ver",
          "type": "uint8"
        }
      ],
      "name": "setVersion",
      "outputs": [],
      "stateMutability": "nonpayable",
      "type": "function"
    }
  ],
  "bytecode": "0x608060405234801561000f575f80fd5b506121dd8061001d5f395ff3fe608060405234801561000f575f80fd5b506004361061011f575f3560e01c80638da5cb5b116100ab578063d5abeb011161006f578063d5abeb011461031b578063dd62ed3e14610339578063f2fde38b14610369578063f78203a714610385578063ffa1ad74146103a15761011f565b80638da5cb5b1461026357806395d89b4114610281578063a457c2d71461029f578063a9059cbb146102cf578063b119490e146102ff5761011f565b8063313ce567116100f2578063313ce567146101bf57806339509351146101dd5780636f8b44b01461020d57806370a0823114610229578063715018a6146102595761011f565b806306fdde0314610123578063095ea7b31461014157806318160ddd1461017157806323b872dd1461018f575b5f80fd5b61012b6103bf565b6040516101389190611287565b60405180910390f35b61015b60048036038101906101569190611345565b61044f565b604051610168919061139d565b60405180910390f35b610179610471565b60405161018691906113c5565b60405180910390f35b6101a960048036038101906101a491906113de565b61047a565b6040516101b6919061139d565b60405180910390f35b6101c76104a8565b6040516101d49190611449565b60405180910390f35b6101f760048036038101906101f29190611345565b6104b0565b604051610204919061139d565b60405180910390f35b61022760048036038101906102229190611462565b6104e6565b005b610243600480360381019061023e919061148d565b610568565b60405161025091906113c5565b60405180910390f35b6102616105ae565b005b61026b6105c1565b60405161027891906114c7565b60405180910390f35b6102896105e9565b6040516102969190611287565b60405180910390f35b6102b960048036038101906102b49190611345565b610679565b6040516102c6919061139d565b60405180910390f35b6102e960048036038101906102e49190611345565b6106ee565b6040516102f6919061139d565b60405180910390f35b6103196004803603810190610314919061160c565b610710565b005b610323610872565b60405161033091906113c5565b60405180910390f35b610353600480360381019061034e9190611694565b610878565b60405161036091906113c5565b60405180910390f35b610383600480360381019061037e919061148d565b6108fa565b005b61039f600480360381019061039a91906116fc565b61097c565b005b6103a9610999565b6040516103b69190611449565b60405180910390f35b6060603680546103ce90611754565b80601f01602080910402602001604051908101604052809291908181526020018280546103fa90611754565b80156104455780601f1061041c57610100808354040283529160200191610445565b820191905f5260205f20905b81548152906001019060200180831161042857829003601f168201915b5050505050905090565b5f806104596109ab565b90506104668185856109b2565b600191505092915050565b5f603554905090565b5f806104846109ab565b9050610491858285610b75565b61049c858585610c00565b60019150509392505050565b5f6012905090565b5f806104ba6109ab565b90506104db8185856104cc8589610878565b6104d691906117b1565b6109b2565b600191505092915050565b6104ee610e6f565b6104f6610471565b670de0b6b3a76400008261050a91906117e4565b101561054b576040517f08c379a000000000000000000000000000000000000000000000000000000000815260040161054290611895565b60405180910390fd5b670de0b6b3a76400008161055f91906117e4565b60988190555050565b5f60335f8373ffffffffffffffffffffffffffffffffffffffff1673ffffffffffffffffffffffffffffffffffffffff1681526020019081526020015f20549050919050565b6105b6610e6f565b6105bf5f610eed565b565b5f60655f9054906101000a900473ffffffffffffffffffffffffffffffffffffffff16905090565b6060603780546105f890611754565b80601f016020809104026020016040519081016040528092919081815260200182805461062490611754565b801561066f5780601f106106465761010080835404028352916020019161066f565b820191905f5260205f20905b81548152906001019060200180831161065257829003601f168201915b5050505050905090565b5f806106836109ab565b90505f6106908286610878565b9050838110156106d5576040517f08c379a00000000000000000000000000000000000000000000000000000000081526004016106cc90611923565b60405180910390fd5b6106e282868684036109b2565b60019250505092915050565b5f806106f86109ab565b9050610705818585610c00565b600191505092915050565b5f8060019054906101000a900460ff1615905080801561073f575060015f8054906101000a900460ff1660ff16105b8061076b575061074e30610fb0565b15801561076a575060015f8054906101000a900460ff1660ff16145b5b6107aa576040517f08c379a00000000000000000000000000000000000000000000000000000000081526004016107a1906119b1565b60405180910390fd5b60015f806101000a81548160ff021916908360ff16021790555080156107e55760015f60016101000a81548160ff0219169083151502179055505b6107ef8484610fd2565b6107f7611044565b61081433670de0b6b3a76400008461080f91906117e4565b6110a4565b801561086c575f8060016101000a81548160ff0219169083151502179055507f7f26b83ff96e1f2b6a682f133852f6798a09c465da95921460cefb384740249860016040516108639190611a11565b60405180910390a15b50505050565b60985481565b5f60345f8473ffffffffffffffffffffffffffffffffffffffff1673ffffffffffffffffffffffffffffffffffffffff1681526020019081526020015f205f8373ffffffffffffffffffffffffffffffffffffffff1673ffffffffffffffffffffffffffffffffffffffff1681526020019081526020015f2054905092915050565b610902610e6f565b5f73ffffffffffffffffffffffffffffffffffffffff168173ffffffffffffffffffffffffffffffffffffffff1603610970576040517f08c379a000000000000000000000000000000000000000000000000000000000815260040161096790611a9a565b60405180910390fd5b61097981610eed565b50565b8060975f6101000a81548160ff021916908360ff16021790555050565b60975f9054906101000a900460ff1681565b5f33905090565b5f73ffffffffffffffffffffffffffffffffffffffff168373ffffffffffffffffffffffffffffffffffffffff1603610a20576040517f08c379a0000000000000000000000000000000000000000000000000000000008152600401610a1790611b28565b60405180910390fd5b5f73ffffffffffffffffffffffffffffffffffffffff168273ffffffffffffffffffffffffffffffffffffffff1603610a8e576040517f08c379a0000000000000000000000000000000000000000000000000000000008152600401610a8590611bb6565b60405180910390fd5b8060345f8573ffffffffffffffffffffffffffffffffffffffff1673ffffffffffffffffffffffffffffffffffffffff1681526020019081526020015f205f8473ffffffffffffffffffffffffffffffffffffffff1673ffffffffffffffffffffffffffffffffffffffff1681526020019081526020015f20819055508173ffffffffffffffffffffffffffffffffffffffff168373ffffffffffffffffffffffffffffffffffffffff167f8c5be1e5ebec7d5bd14f71427d1e84f3dd0314c0f7b2291e5b200ac8c7c3b92583604051610b6891906113c5565b60405180910390a3505050565b5f610b808484610878565b90507fffffffffffffffffffffffffffffffffffffffffffffffffffffffffffffffff8114610bfa5781811015610bec576040517f08c379a0000000000000000000000000000000000000000000000000000000008152600401610be390611c1e565b60405180910390fd5b610bf984848484036109b2565b5b50505050565b5f73ffffffffffffffffffffffffffffffffffffffff168373ffffffffffffffffffffffffffffffffffffffff1603610c6e576040517f08c379a0000000000000000000000000000000000000000000000000000000008152600401610c6590611cac565b60405180910390fd5b5f73ffffffffffffffffffffffffffffffffffffffff168273ffffffffffffffffffffffffffffffffffffffff1603610cdc576040517f08c379a0000000000000000000000000000000000000000000000000000000008152600401610cd390611d3a565b60405180910390fd5b610ce78383836111f3565b5f60335f8573ffffffffffffffffffffffffffffffffffffffff1673ffffffffffffffffffffffffffffffffffffffff1681526020019081526020015f2054905081811015610d6b576040517f08c379a0000000000000000000000000000000000000000000000000000000008152600401610d6290611dc8565b60405180910390fd5b81810360335f8673ffffffffffffffffffffffffffffffffffffffff1673ffffffffffffffffffffffffffffffffffffffff1681526020019081526020015f20819055508160335f8573ffffffffffffffffffffffffffffffffffffffff1673ffffffffffffffffffffffffffffffffffffffff1681526020019081526020015f205f82825401925050819055508273ffffffffffffffffffffffffffffffffffffffff168473ffffffffffffffffffffffffffffffffffffffff167fddf252ad1be2c89b69c2b068fc378daa952ba7f163c4a11628f55a4df523b3ef84604051610e5691906113c5565b60405180910390a3610e698484846111f8565b50505050565b610e776109ab565b73ffffffffffffffffffffffffffffffffffffffff16610e956105c1565b73ffffffffffffffffffffffffffffffffffffffff1614610eeb576040517f08c379a0000000000000000000000000000000000000000000000000000000008152600401610ee290611e30565b60405180910390fd5b565b5f60655f9054906101000a900473ffffffffffffffffffffffffffffffffffffffff1690508160655f6101000a81548173ffffffffffffffffffffffffffffffffffffffff021916908373ffffffffffffffffffffffffffffffffffffffff1602179055508173ffffffffffffffffffffffffffffffffffffffff168173ffffffffffffffffffffffffffffffffffffffff167f8be0079c531659141344cd1fd0a4f28419497f9722a3daafe3b4186f6b6457e060405160405180910390a35050565b5f808273ffffffffffffffffffffffffffffffffffffffff163b119050919050565b5f60019054906101000a900460ff16611020576040517f08c379a000000000000000000000000000000000000000000000000000000000815260040161101790611ebe565b60405180910390fd5b816036908161102f9190612070565b50806037908161103f9190612070565b505050565b5f60019054906101000a900460ff16611092576040517f08c379a000000000000000000000000000000000000000000000000000000000815260040161108990611ebe565b60405180910390fd5b6110a261109d6109ab565b610eed565b565b5f73ffffffffffffffffffffffffffffffffffffffff168273ffffffffffffffffffffffffffffffffffffffff1603611112576040517f08c379a000000000000000000000000000000000000000000000000000000000815260040161110990612189565b60405180910390fd5b61111d5f83836111f3565b8060355f82825461112e91906117b1565b925050819055508060335f8473ffffffffffffffffffffffffffffffffffffffff1673ffffffffffffffffffffffffffffffffffffffff1681526020019081526020015f205f82825401925050819055508173ffffffffffffffffffffffffffffffffffffffff165f73ffffffffffffffffffffffffffffffffffffffff167fddf252ad1be2c89b69c2b068fc378daa952ba7f163c4a11628f55a4df523b3ef836040516111dc91906113c5565b60405180910390a36111ef5f83836111f8565b5050565b505050565b505050565b5f81519050919050565b5f82825260208201905092915050565b5f5b83811015611234578082015181840152602081019050611219565b5f8484015250505050565b5f601f19601f8301169050919050565b5f611259826111fd565b6112638185611207565b9350611273818560208601611217565b61127c8161123f565b840191505092915050565b5f6020820190508181035f83015261129f818461124f565b905092915050565b5f604051905090565b5f80fd5b5f80fd5b5f73ffffffffffffffffffffffffffffffffffffffff82169050919050565b5f6112e1826112b8565b9050919050565b6112f1816112d7565b81146112fb575f80fd5b50565b5f8135905061130c816112e8565b92915050565b5f819050919050565b61132481611312565b811461132e575f80fd5b50565b5f8135905061133f8161131b565b92915050565b5f806040838503121561135b5761135a6112b0565b5b5f611368858286016112fe565b925050602061137985828601611331565b9150509250929050565b5f8115159050919050565b61139781611383565b82525050565b5f6020820190506113b05f83018461138e565b92915050565b6113bf81611312565b82525050565b5f6020820190506113d85f8301846113b6565b92915050565b5f805f606084860312156113f5576113f46112b0565b5b5f611402868287016112fe565b9350506020611413868287016112fe565b925050604061142486828701611331565b9150509250925092565b5f60ff82169050919050565b6114438161142e565b82525050565b5f60208201905061145c5f83018461143a565b92915050565b5f60208284031215611477576114766112b0565b5b5f61148484828501611331565b91505092915050565b5f602082840312156114a2576114a16112b0565b5b5f6114af848285016112fe565b91505092915050565b6114c1816112d7565b82525050565b5f6020820190506114da5f8301846114b8565b92915050565b5f80fd5b5f80fd5b7f4e487b71000000000000000000000000000000000000000000000000000000005f52604160045260245ffd5b61151e8261123f565b810181811067ffffffffffffffff8211171561153d5761153c6114e8565b5b80604052505050565b5f61154f6112a7565b905061155b8282611515565b919050565b5f67ffffffffffffffff82111561157a576115796114e8565b5b6115838261123f565b9050602081019050919050565b828183375f83830152505050565b5f6115b06115ab84611560565b611546565b9050828152602081018484840111156115cc576115cb6114e4565b5b6115d7848285611590565b509392505050565b5f82601f8301126115f3576115f26114e0565b5b813561160384826020860161159e565b91505092915050565b5f805f60608486031215611623576116226112b0565b5b5f84013567ffffffffffffffff8111156116405761163f6112b4565b5b61164c868287016115df565b935050602084013567ffffffffffffffff81111561166d5761166c6112b4565b5b611679868287016115df565b925050604061168a86828701611331565b9150509250925092565b5f80604083850312156116aa576116a96112b0565b5b5f6116b7858286016112fe565b92505060206116c8858286016112fe565b9150509250929050565b6116db8161142e565b81146116e5575f80fd5b50565b5f813590506116f6816116d2565b92915050565b5f60208284031215611711576117106112b0565b5b5f61171e848285016116e8565b91505092915050565b7f4e487b71000000000000000000000000000000000000000000000000000000005f52602260045260245ffd5b5f600282049050600182168061176b57607f821691505b60208210810361177e5761177d611727565b5b50919050565b7f4e487b71000000000000000000000000000000000000000000000000000000005f52601160045260245ffd5b5f6117bb82611312565b91506117c683611312565b92508282019050808211156117de576117dd611784565b5b92915050565b5f6117ee82611312565b91506117f983611312565b925082820261180781611312565b9150828204841483151761181e5761181d611784565b5b5092915050565b7f4d617820737570706c792063616e6e6f74206265206c657373207468616e20745f8201527f6f74616c20737570706c79000000000000000000000000000000000000000000602082015250565b5f61187f602b83611207565b915061188a82611825565b604082019050919050565b5f6020820190508181035f8301526118ac81611873565b9050919050565b7f45524332303a2064656372656173656420616c6c6f77616e63652062656c6f775f8201527f207a65726f000000000000000000000000000000000000000000000000000000602082015250565b5f61190d602583611207565b9150611918826118b3565b604082019050919050565b5f6020820190508181035f83015261193a81611901565b9050919050565b7f496e697469616c697a61626c653a20636f6e747261637420697320616c7265615f8201527f647920696e697469616c697a6564000000000000000000000000000000000000602082015250565b5f61199b602e83611207565b91506119a682611941565b604082019050919050565b5f6020820190508181035f8301526119c88161198f565b9050919050565b5f819050919050565b5f819050919050565b5f6119fb6119f66119f1846119cf565b6119d8565b61142e565b9050919050565b611a0b816119e1565b82525050565b5f602082019050611a245f830184611a02565b92915050565b7f4f776e61626c653a206e6577206f776e657220697320746865207a65726f20615f8201527f6464726573730000000000000000000000000000000000000000000000000000602082015250565b5f611a84602683611207565b9150611a8f82611a2a565b604082019050919050565b5f6020820190508181035f830152611ab181611a78565b9050919050565b7f45524332303a20617070726f76652066726f6d20746865207a65726f206164645f8201527f7265737300000000000000000000000000000000000000000000000000000000602082015250565b5f611b12602483611207565b9150611b1d82611ab8565b604082019050919050565b5f6020820190508181035f830152611b3f81611b06565b9050919050565b7f45524332303a20617070726f766520746f20746865207a65726f2061646472655f8201527f7373000000000000000000000000000000000000000000000000000000000000602082015250565b5f611ba0602283611207565b9150611bab82611b46565b604082019050919050565b5f6020820190508181035f830152611bcd81611b94565b9050919050565b7f45524332303a20696e73756666696369656e7420616c6c6f77616e63650000005f82015250565b5f611c08601d83611207565b9150611c1382611bd4565b602082019050919050565b5f6020820190508181035f830152611c3581611bfc565b9050919050565b7f45524332303a207472616e736665722066726f6d20746865207a65726f2061645f8201527f6472657373000000000000000000000000000000000000000000000000000000602082015250565b5f611c96602583611207565b9150611ca182611c3c565b604082019050919050565b5f6020820190508181035f830152611cc381611c8a565b9050919050565b7f45524332303a207472616e7366657220746f20746865207a65726f20616464725f8201527f6573730000000000000000000000000000000000000000000000000000000000602082015250565b5f611d24602383611207565b9150611d2f82611cca565b604082019050919050565b5f6020820190508181035f830152611d5181611d18565b9050919050565b7f45524332303a207472616e7366657220616d6f756e74206578636565647320625f8201527f616c616e63650000000000000000000000000000000000000000000000000000602082015250565b5f611db2602683611207565b9150611dbd82611d58565b604082019050919050565b5f6020820190508181035f830152611ddf81611da6565b9050919050565b7f4f776e61626c653a2063616c6c6572206973206e6f7420746865206f776e65725f82015250565b5f611e1a602083611207565b9150611e2582611de6565b602082019050919050565b5f6020820190508181035f830152611e4781611e0e565b9050919050565b7f496e697469616c697a61626c653a20636f6e7472616374206973206e6f7420695f8201527f6e697469616c697a696e67000000000000000000000000000000000000000000602082015250565b5f611ea8602b83611207565b9150611eb382611e4e565b604082019050919050565b5f6020820190508181035f830152611ed581611e9c565b9050919050565b5f819050815f5260205f209050919050565b5f6020601f8301049050919050565b5f82821b905092915050565b5f60088302611f387fffffffffffffffffffffffffffffffffffffffffffffffffffffffffffffffff82611efd565b611f428683611efd565b95508019841693508086168417925050509392505050565b5f611f74611f6f611f6a84611312565b6119d8565b611312565b9050919050565b5f819050919050565b611f8d83611f5a565b611fa1611f9982611f7b565b848454611f09565b825550505050565b5f90565b611fb5611fa9565b611fc0818484611f84565b505050565b5b81811015611fe357611fd85f82611fad565b600181019050611fc6565b5050565b601f82111561202857611ff981611edc565b61200284611eee565b81016020851015612011578190505b61202561201d85611eee565b830182611fc5565b50505b505050565b5f82821c905092915050565b5f6120485f198460080261202d565b1980831691505092915050565b5f6120608383612039565b9150826002028217905092915050565b612079826111fd565b67ffffffffffffffff811115612092576120916114e8565b5b61209c8254611754565b6120a7828285611fe7565b5f60209050601f8311600181146120d8575f84156120c6578287015190505b6120d08582612055565b865550612137565b601f1984166120e686611edc565b5f5b8281101561210d578489015182556001820191506020850194506020810190506120e8565b8683101561212a5784890151612126601f891682612039565b8355505b6001600288020188555050505b505050505050565b7f45524332303a206d696e7420746f20746865207a65726f2061646472657373005f82015250565b5f612173601f83611207565b915061217e8261213f565b602082019050919050565b5f6020820190508181035f8301526121a081612167565b905091905056fea2646970667358221220876ba9b619e1b5f005d77409ac1b5294f49d78abda955f99b21e7fa308152c7f64736f6c63430008150033",
  "immutableReferences": {},
  "source": "// SPDX-License-Identifier: MIT\npragma solidity ^0.8.17;\n\nimport \"@openzeppelin/contracts-upgradeable/token/ERC20/ERC20Upgradeable.sol\";\nimport \"@openzeppelin/contracts-upgradeable/access/OwnableUpgradeable.sol\";\nimport \"./Token.sol\";\nimport \"./Tokwn2Storaage.sol\";\n\ncontract Token2 is ERC20Upgradeable, OwnableUpgradeable, Token2Storage {\n\n\n    function initialize(string memory _tokenName, string memory _tokenSymbol, uint256 _supply) public initializer {\n        __ERC20_init_unchained(_tokenName, _tokenSymbol);\n        __Ownable_init_unchained();\n\n        _mint(msg.sender, _supply*(1e18));\n    }\n\n    function setMaxSupply(uint256 _max) external onlyOwner {\n        require(_max * 1e18 >= totalSupply(), \"Max supply cannot be less than total supply\");\n        maxSupply = _max * 1e18;\n    }\n\n\n    function setVersion(uint8 _ver) external {\n        VERSION = _ver;\n    }\n}\n",
  "sourcePath": "/home/vincenzotinelli/Mz-Dev-Homework4/contracts/Token2.sol",
  "compiler": {
    "name": "solc",
    "version": "0.8.21+commit.d9974bed.Emscripten.clang"
  },
  "schemaVersion": "3.4.16",
  "updatedAt": "2024-06-07T06:01:28.212Z",
  "networkType": "ethereum",
  "devdoc": {
    "events": {
      "Approval(address,address,uint256)": {
        "details": "Emitted when the allowance of a `spender` for an `owner` is set by a call to {approve}. `value` is the new allowance."
      },
      "Initialized(uint8)": {
        "details": "Triggered when the contract has been initialized or reinitialized."
      },
      "Transfer(address,address,uint256)": {
        "details": "Emitted when `value` tokens are moved from one account (`from`) to another (`to`). Note that `value` may be zero."
      }
    },
    "kind": "dev",
    "methods": {
      "allowance(address,address)": {
        "details": "See {IERC20-allowance}."
      },
      "approve(address,uint256)": {
        "details": "See {IERC20-approve}. NOTE: If `amount` is the maximum `uint256`, the allowance is not updated on `transferFrom`. This is semantically equivalent to an infinite approval. Requirements: - `spender` cannot be the zero address."
      },
      "balanceOf(address)": {
        "details": "See {IERC20-balanceOf}."
      },
      "decimals()": {
        "details": "Returns the number of decimals used to get its user representation. For example, if `decimals` equals `2`, a balance of `505` tokens should be displayed to a user as `5.05` (`505 / 10 ** 2`). Tokens usually opt for a value of 18, imitating the relationship between Ether and Wei. This is the value {ERC20} uses, unless this function is overridden; NOTE: This information is only used for _display_ purposes: it in no way affects any of the arithmetic of the contract, including {IERC20-balanceOf} and {IERC20-transfer}."
      },
      "decreaseAllowance(address,uint256)": {
        "details": "Atomically decreases the allowance granted to `spender` by the caller. This is an alternative to {approve} that can be used as a mitigation for problems described in {IERC20-approve}. Emits an {Approval} event indicating the updated allowance. Requirements: - `spender` cannot be the zero address. - `spender` must have allowance for the caller of at least `subtractedValue`."
      },
      "increaseAllowance(address,uint256)": {
        "details": "Atomically increases the allowance granted to `spender` by the caller. This is an alternative to {approve} that can be used as a mitigation for problems described in {IERC20-approve}. Emits an {Approval} event indicating the updated allowance. Requirements: - `spender` cannot be the zero address."
      },
      "name()": {
        "details": "Returns the name of the token."
      },
      "owner()": {
        "details": "Returns the address of the current owner."
      },
      "renounceOwnership()": {
        "details": "Leaves the contract without owner. It will not be possible to call `onlyOwner` functions anymore. Can only be called by the current owner. NOTE: Renouncing ownership will leave the contract without an owner, thereby removing any functionality that is only available to the owner."
      },
      "symbol()": {
        "details": "Returns the symbol of the token, usually a shorter version of the name."
      },
      "totalSupply()": {
        "details": "See {IERC20-totalSupply}."
      },
      "transfer(address,uint256)": {
        "details": "See {IERC20-transfer}. Requirements: - `to` cannot be the zero address. - the caller must have a balance of at least `amount`."
      },
      "transferFrom(address,address,uint256)": {
        "details": "See {IERC20-transferFrom}. Emits an {Approval} event indicating the updated allowance. This is not required by the EIP. See the note at the beginning of {ERC20}. NOTE: Does not update the allowance if the current allowance is the maximum `uint256`. Requirements: - `from` and `to` cannot be the zero address. - `from` must have a balance of at least `amount`. - the caller must have allowance for ``from``'s tokens of at least `amount`."
      },
      "transferOwnership(address)": {
        "details": "Transfers ownership of the contract to a new account (`newOwner`). Can only be called by the current owner."
      }
    },
    "version": 1
  },
  "userdoc": {
    "kind": "user",
    "methods": {},
    "version": 1
  }
}